{
  "address": "0xCfF363294b876F27dF7aCe9584B243177bF618af",
  "abi": [
    {
      "inputs": [
        {
          "internalType": "contract IERC20",
          "name": "_ichi",
          "type": "address"
        },
        {
          "internalType": "uint256",
          "name": "_ichiPerBlock",
          "type": "uint256"
        }
      ],
      "stateMutability": "nonpayable",
      "type": "constructor"
    },
    {
      "anonymous": false,
      "inputs": [
        {
          "indexed": true,
          "internalType": "address",
          "name": "user",
          "type": "address"
        },
        {
          "indexed": true,
          "internalType": "uint256",
          "name": "pid",
          "type": "uint256"
        },
        {
          "indexed": false,
          "internalType": "uint256",
          "name": "amount",
          "type": "uint256"
        },
        {
          "indexed": true,
          "internalType": "address",
          "name": "to",
          "type": "address"
        }
      ],
      "name": "Deposit",
      "type": "event"
    },
    {
      "anonymous": false,
      "inputs": [
        {
          "indexed": true,
          "internalType": "address",
          "name": "user",
          "type": "address"
        },
        {
          "indexed": true,
          "internalType": "uint256",
          "name": "pid",
          "type": "uint256"
        },
        {
          "indexed": false,
          "internalType": "uint256",
          "name": "amount",
          "type": "uint256"
        },
        {
          "indexed": true,
          "internalType": "address",
          "name": "to",
          "type": "address"
        }
      ],
      "name": "EmergencyWithdraw",
      "type": "event"
    },
    {
      "anonymous": false,
      "inputs": [
        {
          "indexed": true,
          "internalType": "address",
          "name": "user",
          "type": "address"
        },
        {
          "indexed": true,
          "internalType": "uint256",
          "name": "pid",
          "type": "uint256"
        },
        {
          "indexed": false,
          "internalType": "uint256",
          "name": "amount",
          "type": "uint256"
        }
      ],
      "name": "Harvest",
      "type": "event"
    },
    {
      "anonymous": false,
      "inputs": [
        {
          "indexed": true,
          "internalType": "uint256",
          "name": "pid",
          "type": "uint256"
        },
        {
          "indexed": false,
          "internalType": "uint256",
          "name": "allocPoint",
          "type": "uint256"
        },
        {
          "indexed": true,
          "internalType": "contract IERC20",
          "name": "lpToken",
          "type": "address"
        }
      ],
      "name": "LogPoolAddition",
      "type": "event"
    },
    {
      "anonymous": false,
      "inputs": [
        {
          "indexed": true,
          "internalType": "uint256",
          "name": "pid",
          "type": "uint256"
        },
        {
          "indexed": false,
          "internalType": "uint256",
          "name": "allocPoint",
          "type": "uint256"
        }
      ],
      "name": "LogSetPool",
      "type": "event"
    },
    {
      "anonymous": false,
      "inputs": [
        {
          "indexed": true,
          "internalType": "uint256",
          "name": "pid",
          "type": "uint256"
        },
        {
          "indexed": false,
          "internalType": "uint64",
          "name": "lastRewardBlock",
          "type": "uint64"
        },
        {
          "indexed": false,
          "internalType": "uint256",
          "name": "lpSupply",
          "type": "uint256"
        },
        {
          "indexed": false,
          "internalType": "uint256",
          "name": "accIchiPerShare",
          "type": "uint256"
        }
      ],
      "name": "LogUpdatePool",
      "type": "event"
    },
    {
      "anonymous": false,
      "inputs": [
        {
          "indexed": true,
          "internalType": "address",
          "name": "previousOwner",
          "type": "address"
        },
        {
          "indexed": true,
          "internalType": "address",
          "name": "newOwner",
          "type": "address"
        }
      ],
      "name": "OwnershipTransferred",
      "type": "event"
    },
    {
      "anonymous": false,
      "inputs": [
        {
          "indexed": true,
          "internalType": "address",
          "name": "user",
          "type": "address"
        },
        {
          "indexed": true,
          "internalType": "uint256",
          "name": "pid",
          "type": "uint256"
        },
        {
          "indexed": false,
          "internalType": "uint256",
          "name": "amount",
          "type": "uint256"
        },
        {
          "indexed": true,
          "internalType": "address",
          "name": "to",
          "type": "address"
        }
      ],
      "name": "Withdraw",
      "type": "event"
    },
    {
      "inputs": [
        {
          "internalType": "uint256",
          "name": "allocPoint",
          "type": "uint256"
        },
        {
          "internalType": "contract IERC20",
          "name": "_lpToken",
          "type": "address"
        }
      ],
      "name": "add",
      "outputs": [],
      "stateMutability": "nonpayable",
      "type": "function"
    },
    {
      "inputs": [
        {
          "internalType": "bytes[]",
          "name": "calls",
          "type": "bytes[]"
        },
        {
          "internalType": "bool",
          "name": "revertOnFail",
          "type": "bool"
        }
      ],
      "name": "batch",
      "outputs": [
        {
          "internalType": "bool[]",
          "name": "successes",
          "type": "bool[]"
        },
        {
          "internalType": "bytes[]",
          "name": "results",
          "type": "bytes[]"
        }
      ],
      "stateMutability": "payable",
      "type": "function"
    },
    {
      "inputs": [],
      "name": "claimOwnership",
      "outputs": [],
      "stateMutability": "nonpayable",
      "type": "function"
    },
    {
      "inputs": [
        {
          "internalType": "uint256",
          "name": "pid",
          "type": "uint256"
        },
        {
          "internalType": "uint256",
          "name": "amount",
          "type": "uint256"
        },
        {
          "internalType": "address",
          "name": "to",
          "type": "address"
        }
      ],
      "name": "deposit",
      "outputs": [],
      "stateMutability": "nonpayable",
      "type": "function"
    },
    {
      "inputs": [
        {
          "internalType": "uint256",
          "name": "pid",
          "type": "uint256"
        },
        {
          "internalType": "address",
          "name": "to",
          "type": "address"
        }
      ],
      "name": "emergencyWithdraw",
      "outputs": [],
      "stateMutability": "nonpayable",
      "type": "function"
    },
    {
      "inputs": [
        {
          "internalType": "uint256",
          "name": "_pid",
          "type": "uint256"
        }
      ],
      "name": "getLPSupply",
      "outputs": [
        {
          "internalType": "uint256",
          "name": "",
          "type": "uint256"
        }
      ],
      "stateMutability": "view",
      "type": "function"
    },
    {
      "inputs": [
        {
          "internalType": "uint256",
          "name": "pid",
          "type": "uint256"
        },
        {
          "internalType": "address",
          "name": "to",
          "type": "address"
        }
      ],
      "name": "harvest",
      "outputs": [],
      "stateMutability": "nonpayable",
      "type": "function"
    },
    {
      "inputs": [],
      "name": "ichiPerBlock",
      "outputs": [
        {
          "internalType": "uint256",
          "name": "",
          "type": "uint256"
        }
      ],
      "stateMutability": "view",
      "type": "function"
    },
    {
      "inputs": [
        {
          "internalType": "uint256",
          "name": "",
          "type": "uint256"
        }
      ],
      "name": "lpToken",
      "outputs": [
        {
          "internalType": "contract IERC20",
          "name": "",
          "type": "address"
        }
      ],
      "stateMutability": "view",
      "type": "function"
    },
    {
      "inputs": [],
      "name": "massUpdateAllPools",
      "outputs": [],
      "stateMutability": "nonpayable",
      "type": "function"
    },
    {
      "inputs": [
        {
          "internalType": "uint256[]",
          "name": "pids",
          "type": "uint256[]"
        }
      ],
      "name": "massUpdatePools",
      "outputs": [],
      "stateMutability": "nonpayable",
      "type": "function"
    },
    {
      "inputs": [],
      "name": "owner",
      "outputs": [
        {
          "internalType": "address",
          "name": "",
          "type": "address"
        }
      ],
      "stateMutability": "view",
      "type": "function"
    },
    {
      "inputs": [
        {
          "internalType": "uint256",
          "name": "_pid",
          "type": "uint256"
        },
        {
          "internalType": "address",
          "name": "_user",
          "type": "address"
        }
      ],
      "name": "pendingIchi",
      "outputs": [
        {
          "internalType": "uint256",
          "name": "pending",
          "type": "uint256"
        }
      ],
      "stateMutability": "view",
      "type": "function"
    },
    {
      "inputs": [],
      "name": "pendingOwner",
      "outputs": [
        {
          "internalType": "address",
          "name": "",
          "type": "address"
        }
      ],
      "stateMutability": "view",
      "type": "function"
    },
    {
      "inputs": [
        {
          "internalType": "contract IERC20",
          "name": "token",
          "type": "address"
        },
        {
          "internalType": "address",
          "name": "from",
          "type": "address"
        },
        {
          "internalType": "address",
          "name": "to",
          "type": "address"
        },
        {
          "internalType": "uint256",
          "name": "amount",
          "type": "uint256"
        },
        {
          "internalType": "uint256",
          "name": "deadline",
          "type": "uint256"
        },
        {
          "internalType": "uint8",
          "name": "v",
          "type": "uint8"
        },
        {
          "internalType": "bytes32",
          "name": "r",
          "type": "bytes32"
        },
        {
          "internalType": "bytes32",
          "name": "s",
          "type": "bytes32"
        }
      ],
      "name": "permitToken",
      "outputs": [],
      "stateMutability": "nonpayable",
      "type": "function"
    },
    {
      "inputs": [
        {
          "internalType": "uint256",
          "name": "_pid",
          "type": "uint256"
        }
      ],
      "name": "poolIchiReward",
      "outputs": [
        {
          "internalType": "uint256",
          "name": "",
          "type": "uint256"
        }
      ],
      "stateMutability": "view",
      "type": "function"
    },
    {
      "inputs": [
        {
          "internalType": "uint256",
          "name": "",
          "type": "uint256"
        }
      ],
      "name": "poolInfo",
      "outputs": [
        {
          "internalType": "uint128",
          "name": "accIchiPerShare",
          "type": "uint128"
        },
        {
          "internalType": "uint64",
          "name": "lastRewardBlock",
          "type": "uint64"
        },
        {
          "internalType": "uint64",
          "name": "allocPoint",
          "type": "uint64"
        }
      ],
      "stateMutability": "view",
      "type": "function"
    },
    {
      "inputs": [],
      "name": "poolLength",
      "outputs": [
        {
          "internalType": "uint256",
          "name": "pools",
          "type": "uint256"
        }
      ],
      "stateMutability": "view",
      "type": "function"
    },
    {
      "inputs": [
        {
          "internalType": "uint256",
          "name": "_pid",
          "type": "uint256"
        },
        {
          "internalType": "uint256",
          "name": "_allocPoint",
          "type": "uint256"
        }
      ],
      "name": "set",
      "outputs": [],
      "stateMutability": "nonpayable",
      "type": "function"
    },
    {
      "inputs": [
        {
          "internalType": "uint256",
          "name": "_ichiPerBlock",
          "type": "uint256"
        },
        {
          "internalType": "bool",
          "name": "_withUpdate",
          "type": "bool"
        }
      ],
      "name": "setIchiPerBlock",
      "outputs": [],
      "stateMutability": "nonpayable",
      "type": "function"
    },
    {
      "inputs": [
        {
          "internalType": "bool",
          "name": "_val",
          "type": "bool"
        }
      ],
      "name": "setNonReentrant",
      "outputs": [
        {
          "internalType": "bool",
          "name": "",
          "type": "bool"
        }
      ],
      "stateMutability": "nonpayable",
      "type": "function"
    },
    {
      "inputs": [],
      "name": "totalAllocPoint",
      "outputs": [
        {
          "internalType": "uint256",
          "name": "",
          "type": "uint256"
        }
      ],
      "stateMutability": "view",
      "type": "function"
    },
    {
      "inputs": [
        {
          "internalType": "address",
          "name": "newOwner",
          "type": "address"
        },
        {
          "internalType": "bool",
          "name": "direct",
          "type": "bool"
        },
        {
          "internalType": "bool",
          "name": "renounce",
          "type": "bool"
        }
      ],
      "name": "transferOwnership",
      "outputs": [],
      "stateMutability": "nonpayable",
      "type": "function"
    },
    {
      "inputs": [
        {
          "internalType": "uint256",
          "name": "pid",
          "type": "uint256"
        }
      ],
      "name": "updatePool",
      "outputs": [
        {
          "components": [
            {
              "internalType": "uint128",
              "name": "accIchiPerShare",
              "type": "uint128"
            },
            {
              "internalType": "uint64",
              "name": "lastRewardBlock",
              "type": "uint64"
            },
            {
              "internalType": "uint64",
              "name": "allocPoint",
              "type": "uint64"
            }
          ],
          "internalType": "struct ichiFarmV2.PoolInfo",
          "name": "pool",
          "type": "tuple"
        }
      ],
      "stateMutability": "nonpayable",
      "type": "function"
    },
    {
      "inputs": [
        {
          "internalType": "uint256",
          "name": "",
          "type": "uint256"
        },
        {
          "internalType": "address",
          "name": "",
          "type": "address"
        }
      ],
      "name": "userInfo",
      "outputs": [
        {
          "internalType": "uint256",
          "name": "amount",
          "type": "uint256"
        },
        {
          "internalType": "int256",
          "name": "rewardDebt",
          "type": "int256"
        }
      ],
      "stateMutability": "view",
      "type": "function"
    },
    {
      "inputs": [
        {
          "internalType": "uint256",
          "name": "pid",
          "type": "uint256"
        },
        {
          "internalType": "uint256",
          "name": "amount",
          "type": "uint256"
        },
        {
          "internalType": "address",
          "name": "to",
          "type": "address"
        }
      ],
      "name": "withdraw",
      "outputs": [],
      "stateMutability": "nonpayable",
      "type": "function"
    }
  ],
  "transactionHash": "0xc9993ff76241b700d42b0be011418fc5dac705309d2a674b93590fee5bf3ec28",
  "args": [
    "0x883Cc74d965edB77311A3f9a93649e92E2aa14ba",
    1
  ],
  "solcInputHash": "d368ecd518c5e94b60890d3b86eed07d",
  "bytecode": "0x60a060405234801561001057600080fd5b506040516200246c3803806200246c83398101604081905261003191610090565b600080546001600160a01b0319163390811782556040519091907f8be0079c531659141344cd1fd0a4f28419497f9722a3daafe3b4186f6b6457e0908290a360609190911b6001600160601b03191660805260065560006005556100c8565b600080604083850312156100a2578182fd5b82516001600160a01b03811681146100b8578283fd5b6020939093015192949293505050565b60805160601c612386620000e66000398061081452506123866000f3fe6080604052600436106101815760003560e01c80636e94455d116100d157806393abfaf11161008a578063c1bcb49311610064578063c1bcb4931461046b578063d2423b5114610480578063e30c3978146104a1578063efd1a444146104b657610181565b806393abfaf1146103fb57806393f1a40b14610428578063a8d481ec1461045657610181565b80636e94455d1461033957806378ed5d1f146103595780637c516e9414610386578063862a7d61146103a65780638da5cb5b146103c65780638dbdbe6d146103db57610181565b80631ab06ee51161013e5780632f940c70116101185780632f940c70146102b75780634e71e0c8146102d757806351eb05a6146102ec57806357a5b58c1461031957610181565b80631ab06ee5146102575780631e6d417d146102775780632b8bbbe81461029757610181565b8063078dfbe714610186578063081e3eda146101a85780630ad58d2f146101d35780631526fe27146101f357806317caf6f11461022257806318fccc7614610237575b600080fd5b34801561019257600080fd5b506101a66101a1366004611a7a565b6104d6565b005b3480156101b457600080fd5b506101bd6105c5565b6040516101ca9190612279565b60405180910390f35b3480156101df57600080fd5b506101a66101ee366004611d49565b6105cb565b3480156101ff57600080fd5b5061021361020e366004611ca5565b610705565b6040516101ca9392919061224f565b34801561022e57600080fd5b506101bd610747565b34801561024357600080fd5b506101a6610252366004611cd5565b61074d565b34801561026357600080fd5b506101a6610272366004611d28565b61088f565b34801561028357600080fd5b506101a6610292366004611d04565b61097e565b3480156102a357600080fd5b506101a66102b2366004611cd5565b6109bc565b3480156102c357600080fd5b506101a66102d2366004611cd5565b610b4e565b3480156102e357600080fd5b506101a6610be0565b3480156102f857600080fd5b5061030c610307366004611ca5565b610c6d565b6040516101ca9190612216565b34801561032557600080fd5b506101a6610334366004611b0d565b610efa565b34801561034557600080fd5b506101bd610354366004611ca5565b610f30565b34801561036557600080fd5b50610379610374366004611ca5565b610f78565b6040516101ca9190611dce565b34801561039257600080fd5b506101a66103a1366004611b84565b610f9f565b3480156103b257600080fd5b506101bd6103c1366004611cd5565b611013565b3480156103d257600080fd5b50610379611213565b3480156103e757600080fd5b506101a66103f6366004611d49565b611222565b34801561040757600080fd5b5061041b610416366004611b4c565b61134b565b6040516101ca9190611efa565b34801561043457600080fd5b50610448610443366004611cd5565b611390565b6040516101ca929190612282565b34801561046257600080fd5b506101bd6113b4565b34801561047757600080fd5b506101a66113ba565b61049361048e366004611ac4565b6113de565b6040516101ca929190611e60565b3480156104ad57600080fd5b5061037961156e565b3480156104c257600080fd5b506101bd6104d1366004611ca5565b61157d565b6000546001600160a01b031633146105095760405162461bcd60e51b8152600401610500906120c5565b60405180910390fd5b81156105a4576001600160a01b0383161515806105235750805b61053f5760405162461bcd60e51b815260040161050090612028565b600080546040516001600160a01b03808716939216917f8be0079c531659141344cd1fd0a4f28419497f9722a3daafe3b4186f6b6457e091a3600080546001600160a01b0385166001600160a01b0319918216179091556001805490911690556105c0565b600180546001600160a01b0319166001600160a01b0385161790555b505050565b60025490565b60075460ff16156105ee5760405162461bcd60e51b815260040161050090611fa3565b6007805460ff19166001179055610603611a12565b61060c84610c6d565b6000858152600460209081526040808320338452909152902081519192509061066190670de0b6b3a76400009061064d9087906001600160801b031661161d565b8161065457fe5b600184015491900461165a565b6001820155805461067290856116a0565b81600001819055506106a883856003888154811061068c57fe5b6000918252602090912001546001600160a01b031691906116c3565b826001600160a01b031685336001600160a01b03167f8166bf25f8a2b7ed3c85049207da4358d16edbed977d23fa2ee6f0dde3ec2132876040516106ec9190612279565b60405180910390a450506007805460ff19169055505050565b6002818154811061071257fe5b6000918252602090912001546001600160801b03811691506001600160401b03600160801b8204811691600160c01b90041683565b60055481565b60075460ff16156107705760405162461bcd60e51b815260040161050090611fa3565b6007805460ff19166001179055610785611a12565b61078e83610c6d565b60008481526004602090815260408083203384529091528120825181549394509092670de0b6b3a7640000916107cd91906001600160801b031661161d565b816107d457fe5b04905060006107f86107f384600101548461165a90919063ffffffff16565b6117b1565b600184018390559050801561083b5761083b6001600160a01b037f00000000000000000000000000000000000000000000000000000000000000001686836116c3565b85336001600160a01b03167f71bab65ced2e5750775a0613be067df48ef06cf92a496ebf7663ae0660924954836040516108759190612279565b60405180910390a350506007805460ff1916905550505050565b6000546001600160a01b031633146108b95760405162461bcd60e51b8152600401610500906120c5565b6108f8816108f2600285815481106108cd57fe5b60009182526020909120015460055490600160c01b90046001600160401b03166116a0565b906117d7565b600555610904816117fa565b6002838154811061091157fe5b9060005260206000200160000160186101000a8154816001600160401b0302191690836001600160401b03160217905550817f942cc7e17a17c164bd977f32ab8c54265d5b9d481e4e352bf874f1e568874e7c826040516109729190612279565b60405180910390a25050565b6000546001600160a01b031633146109a85760405162461bcd60e51b8152600401610500906120c5565b80156109b6576109b66113ba565b50600655565b6000546001600160a01b031633146109e65760405162461bcd60e51b8152600401610500906120c5565b60055443906109f590846117d7565b6005556003805460018101825560009182527fc2575a0e9e593c00f959f8c92f12db2869c3395a3b0502d05e2516446f71f85b0180546001600160a01b0319166001600160a01b038516179055604080516060810190915290815260029060208101610a60846117fa565b6001600160401b03168152602001610a77866117fa565b6001600160401b039081169091528254600181810185556000948552602094859020845192018054958501516040909501518416600160c01b026001600160c01b0395909416600160801b0267ffffffffffffffff60801b196001600160801b039094166001600160801b0319909716969096179290921694909417929092161790556003546001600160a01b03841691610b1291906116a0565b7f4710feb78e3bce8d2e3ca2989a8eb2f8bcd32a6a55b4535942c180fc4d2e295285604051610b419190612279565b60405180910390a3505050565b600082815260046020908152604080832033845290915281208054828255600182019290925560038054919291610b8e9185918491908890811061068c57fe5b826001600160a01b031684336001600160a01b03167f2cac5e20e1541d836381527a43f651851e302817b71dc8e810284e69210c1c6b84604051610bd29190612279565b60405180910390a450505050565b6001546001600160a01b0316338114610c0b5760405162461bcd60e51b8152600401610500906120fa565b600080546040516001600160a01b03808516939216917f8be0079c531659141344cd1fd0a4f28419497f9722a3daafe3b4186f6b6457e091a3600080546001600160a01b039092166001600160a01b0319928316179055600180549091169055565b610c75611a12565b60028281548110610c8257fe5b60009182526020918290206040805160608101825292909101546001600160801b03811683526001600160401b03600160801b82048116948401859052600160c01b90910416908201529150431115610ef557600060038381548110610ce457fe5b6000918252602090912001546040516370a0823160e01b81526001600160a01b03909116906370a0823190610d1d903090600401611dce565b60206040518083038186803b158015610d3557600080fd5b505afa158015610d49573d6000803e3d6000fd5b505050506040513d601f19601f82011682018060405250810190610d6d9190611cbd565b90508015610e19576000610d9783602001516001600160401b0316436116a090919063ffffffff16565b90506000600554610dca85604001516001600160401b0316610dc46006548661161d90919063ffffffff16565b9061161d565b81610dd157fe5b049050610e0b610dfa84610ded84670de0b6b3a764000061161d565b81610df457fe5b04611823565b85516001600160801b03169061184c565b6001600160801b0316845250505b610e22436117fa565b6001600160401b031660208301526002805483919085908110610e4157fe5b6000918252602091829020835191018054848401516040958601516001600160801b03199092166001600160801b039094169390931767ffffffffffffffff60801b1916600160801b6001600160401b0394851602176001600160c01b0316600160c01b93909116929092029190911790558301518351915185927f0fc9545022a542541ad085d091fb09a2ab36fee366a4576ab63714ea907ad35392610eeb9290918691612290565b60405180910390a2505b919050565b8060005b81811015610f2a57610f21848483818110610f1557fe5b90506020020135610c6d565b50600101610efe565b50505050565b6000600554610f6a60028481548110610f4557fe5b60009182526020909120015460065490600160c01b90046001600160401b031661161d565b81610f7157fe5b0492915050565b60038181548110610f8557fe5b6000918252602090912001546001600160a01b0316905081565b60405163d505accf60e01b81526001600160a01b0389169063d505accf90610fd7908a908a908a908a908a908a908a90600401611e06565b600060405180830381600087803b158015610ff157600080fd5b505af1158015611005573d6000803e3d6000fd5b505050505050505050505050565b600061101d611a12565b6002848154811061102a57fe5b600091825260208083206040805160608101825291909301546001600160801b0380821683526001600160401b03600160801b8304811684860152600160c01b90920490911682850152888552600483528385206001600160a01b03891686529092529183208251600380549496509194921692889081106110a857fe5b6000918252602090912001546040516370a0823160e01b81526001600160a01b03909116906370a08231906110e1903090600401611dce565b60206040518083038186803b1580156110f957600080fd5b505afa15801561110d573d6000803e3d6000fd5b505050506040513d601f19601f820116820180604052508101906111319190611cbd565b905083602001516001600160401b03164311801561114e57508015155b156111d757600061117585602001516001600160401b0316436116a090919063ffffffff16565b905060006005546111a287604001516001600160401b0316610dc46006548661161d90919063ffffffff16565b816111a957fe5b0490506111d2836111c283670de0b6b3a764000061161d565b816111c957fe5b869190046117d7565b935050505b60018301548354611208916107f391670de0b6b3a7640000906111fa908761161d565b8161120157fe5b049061165a565b979650505050505050565b6000546001600160a01b031681565b60075460ff16156112455760405162461bcd60e51b815260040161050090611fa3565b6007805460ff1916600117905561125a611a12565b61126384610c6d565b60008581526004602090815260408083206001600160a01b0387168452909152902080549192509061129590856117d7565b815581516112cf90670de0b6b3a7640000906112bb9087906001600160801b031661161d565b816112c257fe5b600184015491900461187b565b8160010181905550611307333086600389815481106112ea57fe5b6000918252602090912001546001600160a01b03169291906118c1565b826001600160a01b031685336001600160a01b03167f02d7e648dd130fc184d383e55bb126ac4c9c60e8f94bf05acdf557ba2d540b47876040516106ec9190612279565b600080546001600160a01b031633146113765760405162461bcd60e51b8152600401610500906120c5565b506007805460ff1916911515919091179081905560ff1690565b60046020908152600092835260408084209091529082529020805460019091015482565b60065481565b60025460005b818110156113da576113d181610c6d565b506001016113c0565b5050565b606080836001600160401b03811180156113f757600080fd5b50604051908082528060200260200182016040528015611421578160200160208202803683370190505b509150836001600160401b038111801561143a57600080fd5b5060405190808252806020026020018201604052801561146e57816020015b60608152602001906001900390816114595790505b50905060005b8481101561156557600060603088888581811061148d57fe5b905060200281019061149f91906122ba565b6040516114ad929190611da2565b600060405180830381855af49150503d80600081146114e8576040519150601f19603f3d011682016040523d82523d6000602084013e6114ed565b606091505b509150915081806114fc575085155b611505826119b2565b906115235760405162461bcd60e51b81526004016105009190611f05565b508185848151811061153157fe5b6020026020010190151590811515815250508084848151811061155057fe5b60209081029190910101525050600101611474565b50935093915050565b6001546001600160a01b031681565b6000806003838154811061158d57fe5b6000918252602090912001546040516370a0823160e01b81526001600160a01b03909116906370a08231906115c6903090600401611dce565b60206040518083038186803b1580156115de57600080fd5b505afa1580156115f2573d6000803e3d6000fd5b505050506040513d601f19601f820116820180604052508101906116169190611cbd565b9392505050565b60008115806116385750508082028282828161163557fe5b04145b6116545760405162461bcd60e51b8152600401610500906121df565b92915050565b600081830381831280159061166f5750838113155b80611684575060008312801561168457508381135b6116165760405162461bcd60e51b815260040161050090612166565b808203828111156116545760405162461bcd60e51b815260040161050090611f18565b60006060846001600160a01b031663a9059cbb85856040516024016116e9929190611e47565b6040516020818303038152906040529060e01b6020820180516001600160e01b0383818316178352505050506040516117229190611db2565b6000604051808303816000865af19150503d806000811461175f576040519150601f19603f3d011682016040523d82523d6000602084013e611764565b606091505b509150915081801561178e57508051158061178e57508080602001905181019061178e9190611b68565b6117aa5760405162461bcd60e51b815260040161050090611f6c565b5050505050565b6000808212156117d35760405162461bcd60e51b815260040161050090611f47565b5090565b818101818110156116545760405162461bcd60e51b81526004016105009061208e565b60006001600160401b038211156117d35760405162461bcd60e51b81526004016105009061212f565b60006001600160801b038211156117d35760405162461bcd60e51b815260040161050090612057565b8181016001600160801b0380831690821610156116545760405162461bcd60e51b81526004016105009061208e565b60008282018183128015906118905750838112155b806118a557506000831280156118a557508381125b6116165760405162461bcd60e51b815260040161050090611fe7565b60006060856001600160a01b03166323b872dd8686866040516024016118e993929190611de2565b6040516020818303038152906040529060e01b6020820180516001600160e01b0383818316178352505050506040516119229190611db2565b6000604051808303816000865af19150503d806000811461195f576040519150601f19603f3d011682016040523d82523d6000602084013e611964565b606091505b509150915081801561198e57508051158061198e57508080602001905181019061198e9190611b68565b6119aa5760405162461bcd60e51b8152600401610500906121aa565b505050505050565b60606044825110156119f8575060408051808201909152601d81527f5472616e73616374696f6e2072657665727465642073696c656e746c790000006020820152610ef5565b600482019150818060200190518101906116549190611c0b565b604080516060810182526000808252602082018190529181019190915290565b60008083601f840112611a43578182fd5b5081356001600160401b03811115611a59578182fd5b6020830191508360208083028501011115611a7357600080fd5b9250929050565b600080600060608486031215611a8e578283fd5b8335611a998161232a565b92506020840135611aa981612342565b91506040840135611ab981612342565b809150509250925092565b600080600060408486031215611ad8578283fd5b83356001600160401b03811115611aed578384fd5b611af986828701611a32565b9094509250506020840135611ab981612342565b60008060208385031215611b1f578182fd5b82356001600160401b03811115611b34578283fd5b611b4085828601611a32565b90969095509350505050565b600060208284031215611b5d578081fd5b813561161681612342565b600060208284031215611b79578081fd5b815161161681612342565b600080600080600080600080610100898b031215611ba0578384fd5b8835611bab8161232a565b97506020890135611bbb8161232a565b96506040890135611bcb8161232a565b9550606089013594506080890135935060a089013560ff81168114611bee578384fd5b979a969950949793969295929450505060c08201359160e0013590565b600060208284031215611c1c578081fd5b81516001600160401b0380821115611c32578283fd5b818401915084601f830112611c45578283fd5b815181811115611c53578384fd5b604051601f8201601f191681016020018381118282101715611c73578586fd5b604052818152838201602001871015611c8a578485fd5b611c9b8260208301602087016122fe565b9695505050505050565b600060208284031215611cb6578081fd5b5035919050565b600060208284031215611cce578081fd5b5051919050565b60008060408385031215611ce7578182fd5b823591506020830135611cf98161232a565b809150509250929050565b60008060408385031215611d16578182fd5b823591506020830135611cf981612342565b60008060408385031215611d3a578081fd5b50508035926020909101359150565b600080600060608486031215611d5d578081fd5b83359250602084013591506040840135611ab98161232a565b60008151808452611d8e8160208601602086016122fe565b601f01601f19169290920160200192915050565b6000828483379101908152919050565b60008251611dc48184602087016122fe565b9190910192915050565b6001600160a01b0391909116815260200190565b6001600160a01b039384168152919092166020820152604081019190915260600190565b6001600160a01b0397881681529590961660208601526040850193909352606084019190915260ff16608083015260a082015260c081019190915260e00190565b6001600160a01b03929092168252602082015260400190565b604080825283519082018190526000906020906060840190828701845b82811015611e9b578151151584529284019290840190600101611e7d565b50505083810382850152808551611eb28184612279565b91508192508381028201848801865b83811015611eeb578583038552611ed9838351611d76565b94870194925090860190600101611ec1565b50909998505050505050505050565b901515815260200190565b6000602082526116166020830184611d76565b602080825260159082015274426f72696e674d6174683a20556e646572666c6f7760581b604082015260600190565b6020808252600b908201526a0496e7465676572203c20360ac1b604082015260600190565b6020808252601c908201527f426f72696e6745524332303a205472616e73666572206661696c656400000000604082015260600190565b60208082526024908201527f696368694661726d56323a3a6e6f6e5265656e7472616e74202d20747279206160408201526333b0b4b760e11b606082015260800190565b60208082526021908201527f5369676e6564536166654d6174683a206164646974696f6e206f766572666c6f6040820152607760f81b606082015260800190565b6020808252601590820152744f776e61626c653a207a65726f206164647265737360581b604082015260600190565b6020808252601c908201527f426f72696e674d6174683a2075696e74313238204f766572666c6f7700000000604082015260600190565b60208082526018908201527f426f72696e674d6174683a20416464204f766572666c6f770000000000000000604082015260600190565b6020808252818101527f4f776e61626c653a2063616c6c6572206973206e6f7420746865206f776e6572604082015260600190565b6020808252818101527f4f776e61626c653a2063616c6c657220213d2070656e64696e67206f776e6572604082015260600190565b6020808252601b908201527f426f72696e674d6174683a2075696e743634204f766572666c6f770000000000604082015260600190565b60208082526024908201527f5369676e6564536166654d6174683a207375627472616374696f6e206f766572604082015263666c6f7760e01b606082015260800190565b6020808252818101527f426f72696e6745524332303a205472616e7366657246726f6d206661696c6564604082015260600190565b60208082526018908201527f426f72696e674d6174683a204d756c204f766572666c6f770000000000000000604082015260600190565b81516001600160801b031681526020808301516001600160401b0390811691830191909152604092830151169181019190915260600190565b6001600160801b039390931683526001600160401b03918216602084015216604082015260600190565b90815260200190565b918252602082015260400190565b6001600160401b0393909316835260208301919091526001600160801b0316604082015260600190565b6000808335601e198436030181126122d0578283fd5b8301803591506001600160401b038211156122e9578283fd5b602001915036819003821315611a7357600080fd5b60005b83811015612319578181015183820152602001612301565b83811115610f2a5750506000910152565b6001600160a01b038116811461233f57600080fd5b50565b801515811461233f57600080fdfea2646970667358221220fe5d42d6d8ab118298f32171610b2c29462c784eb46e1cf3833ae610207278e164736f6c634300060c0033",
  "devdoc": {
    "kind": "dev",
    "methods": {
      "add(uint256,address)": {
        "params": {
          "_lpToken": "Address of the LP ERC-20 token.",
          "allocPoint": "AP of the new pool."
        }
      },
      "constructor": {
        "params": {
          "_ichi": "The ICHI token contract address.",
          "_ichiPerBlock": "ICHI tokens created per block."
        }
      },
      "deposit(uint256,uint256,address)": {
        "params": {
          "amount": "LP token amount to deposit.",
          "pid": "The index of the pool. See `poolInfo`.",
          "to": "The receiver of `amount` deposit benefit."
        }
      },
      "emergencyWithdraw(uint256,address)": {
        "params": {
          "pid": "The index of the pool. See `poolInfo`.",
          "to": "Receiver of the LP tokens."
        }
      },
      "harvest(uint256,address)": {
        "params": {
          "pid": "The index of the pool. See `poolInfo`.",
          "to": "Receiver of ICHI rewards."
        }
      },
      "massUpdatePools(uint256[])": {
        "params": {
          "pids": "Pool IDs of all to be updated. Make sure to update all active pools."
        }
      },
      "pendingIchi(uint256,address)": {
        "params": {
          "_pid": "The index of the pool. See `poolInfo`.",
          "_user": "Address of user."
        },
        "returns": {
          "pending": "ICHI reward for a given user."
        }
      },
      "set(uint256,uint256)": {
        "params": {
          "_allocPoint": "New AP of the pool.",
          "_pid": "The index of the pool. See `poolInfo`."
        }
      },
      "setIchiPerBlock(uint256,bool)": {
        "params": {
          "_ichiPerBlock": "ICHI tokens created per block.",
          "_withUpdate": "true if massUpdatePools should be triggered as well."
        }
      },
      "setNonReentrant(bool)": {
        "params": {
          "_val": "nonReentrant flag value to be set."
        }
      },
      "updatePool(uint256)": {
        "params": {
          "pid": "The index of the pool. See `poolInfo`."
        },
        "returns": {
          "pool": "Returns the pool that was updated."
        }
      },
      "withdraw(uint256,uint256,address)": {
        "params": {
          "amount": "LP token amount to withdraw.",
          "pid": "The index of the pool. See `poolInfo`.",
          "to": "Receiver of the LP tokens."
        }
      }
    },
    "stateVariables": {
      "ACC_ICHI_PRECISION": {
        "details": "Extra decimals for pool's accIchiPerShare attribute. Needed in order to accomodate different types of LPs."
      },
      "ICHI": {
        "details": "Address of ICHI contract."
      },
      "nonReentrant": {
        "details": "nonReentrant flag used to secure functions with external calls."
      }
    },
    "version": 1
  },
  "userdoc": {
    "kind": "user",
    "methods": {
      "add(uint256,address)": {
        "notice": "Add a new LP to the pool. Can only be called by the owner. DO NOT add the same LP token more than once. Rewards will be messed up if you do."
      },
      "deposit(uint256,uint256,address)": {
        "notice": "Deposit LP tokens to IFV2 for ICHI allocation."
      },
      "emergencyWithdraw(uint256,address)": {
        "notice": "Withdraw without caring about rewards. EMERGENCY ONLY."
      },
      "getLPSupply(uint256)": {
        "notice": "Returns the total number of LPs staked in the farm."
      },
      "harvest(uint256,address)": {
        "notice": "Harvest proceeds for transaction sender to `to`."
      },
      "ichiPerBlock()": {
        "notice": "ICHI tokens created per block."
      },
      "lpToken(uint256)": {
        "notice": "Address of the LP token for each IFV2 pool."
      },
      "massUpdateAllPools()": {
        "notice": "Update reward variables for all pools. Be careful of gas spending!"
      },
      "massUpdatePools(uint256[])": {
        "notice": "Update reward variables for specified pools. Be careful of gas spending!"
      },
      "pendingIchi(uint256,address)": {
        "notice": "View function to see pending ICHI on frontend."
      },
      "poolIchiReward(uint256)": {
        "notice": "Returns the ICHI reward value for a specific pool."
      },
      "poolInfo(uint256)": {
        "notice": "Info of each IFV2 pool."
      },
      "poolLength()": {
        "notice": "Returns the number of IFV2 pools."
      },
      "set(uint256,uint256)": {
        "notice": "Update the given pool's ICHI allocation point. Can only be called by the owner."
      },
      "setIchiPerBlock(uint256,bool)": {
        "notice": "Update number of ICHI tokens created per block. Can only be called by the owner."
      },
      "setNonReentrant(bool)": {
        "notice": "Set the nonReentrant flag. Could be used to pause/resume the farm operations. Can only be called by the owner."
      },
      "totalAllocPoint()": {
        "notice": "Total allocation points. Must be the sum of all allocation points in all pools."
      },
      "updatePool(uint256)": {
        "notice": "Update reward variables of the given pool."
      },
      "userInfo(uint256,address)": {
        "notice": "Info of each user that stakes LP tokens."
      },
      "withdraw(uint256,uint256,address)": {
        "notice": "Withdraw LP tokens from IFV2."
      }
    },
    "version": 1
  },
  "storageLayout": {
    "storage": [
      {
        "astId": 149,
        "contract": "contracts/ichiFarmV2.sol:ichiFarmV2",
        "label": "owner",
        "offset": 0,
        "slot": "0",
        "type": "t_address"
      },
      {
        "astId": 151,
        "contract": "contracts/ichiFarmV2.sol:ichiFarmV2",
        "label": "pendingOwner",
        "offset": 0,
        "slot": "1",
        "type": "t_address"
      },
      {
        "astId": 883,
        "contract": "contracts/ichiFarmV2.sol:ichiFarmV2",
        "label": "poolInfo",
        "offset": 0,
        "slot": "2",
        "type": "t_array(t_struct(PoolInfo)876_storage)dyn_storage"
      },
      {
        "astId": 887,
        "contract": "contracts/ichiFarmV2.sol:ichiFarmV2",
        "label": "lpToken",
        "offset": 0,
        "slot": "3",
        "type": "t_array(t_contract(IERC20)337)dyn_storage"
      },
      {
        "astId": 894,
        "contract": "contracts/ichiFarmV2.sol:ichiFarmV2",
        "label": "userInfo",
        "offset": 0,
        "slot": "4",
        "type": "t_mapping(t_uint256,t_mapping(t_address,t_struct(UserInfo)869_storage))"
      },
      {
        "astId": 897,
        "contract": "contracts/ichiFarmV2.sol:ichiFarmV2",
        "label": "totalAllocPoint",
        "offset": 0,
        "slot": "5",
        "type": "t_uint256"
      },
      {
        "astId": 900,
        "contract": "contracts/ichiFarmV2.sol:ichiFarmV2",
        "label": "ichiPerBlock",
        "offset": 0,
        "slot": "6",
        "type": "t_uint256"
      },
      {
        "astId": 907,
        "contract": "contracts/ichiFarmV2.sol:ichiFarmV2",
        "label": "nonReentrant",
        "offset": 0,
        "slot": "7",
        "type": "t_bool"
      }
    ],
    "types": {
      "t_address": {
        "encoding": "inplace",
        "label": "address",
        "numberOfBytes": "20"
      },
      "t_array(t_contract(IERC20)337)dyn_storage": {
        "base": "t_contract(IERC20)337",
        "encoding": "dynamic_array",
        "label": "contract IERC20[]",
        "numberOfBytes": "32"
      },
      "t_array(t_struct(PoolInfo)876_storage)dyn_storage": {
        "base": "t_struct(PoolInfo)876_storage",
        "encoding": "dynamic_array",
        "label": "struct ichiFarmV2.PoolInfo[]",
        "numberOfBytes": "32"
      },
      "t_bool": {
        "encoding": "inplace",
        "label": "bool",
        "numberOfBytes": "1"
      },
      "t_contract(IERC20)337": {
        "encoding": "inplace",
        "label": "contract IERC20",
        "numberOfBytes": "20"
      },
      "t_int256": {
        "encoding": "inplace",
        "label": "int256",
        "numberOfBytes": "32"
      },
      "t_mapping(t_address,t_struct(UserInfo)869_storage)": {
        "encoding": "mapping",
        "key": "t_address",
        "label": "mapping(address => struct ichiFarmV2.UserInfo)",
        "numberOfBytes": "32",
        "value": "t_struct(UserInfo)869_storage"
      },
      "t_mapping(t_uint256,t_mapping(t_address,t_struct(UserInfo)869_storage))": {
        "encoding": "mapping",
        "key": "t_uint256",
        "label": "mapping(uint256 => mapping(address => struct ichiFarmV2.UserInfo))",
        "numberOfBytes": "32",
        "value": "t_mapping(t_address,t_struct(UserInfo)869_storage)"
      },
      "t_struct(PoolInfo)876_storage": {
        "encoding": "inplace",
        "label": "struct ichiFarmV2.PoolInfo",
        "members": [
          {
            "astId": 871,
            "contract": "contracts/ichiFarmV2.sol:ichiFarmV2",
            "label": "accIchiPerShare",
            "offset": 0,
            "slot": "0",
            "type": "t_uint128"
          },
          {
            "astId": 873,
            "contract": "contracts/ichiFarmV2.sol:ichiFarmV2",
            "label": "lastRewardBlock",
            "offset": 16,
            "slot": "0",
            "type": "t_uint64"
          },
          {
            "astId": 875,
            "contract": "contracts/ichiFarmV2.sol:ichiFarmV2",
            "label": "allocPoint",
            "offset": 24,
            "slot": "0",
            "type": "t_uint64"
          }
        ],
        "numberOfBytes": "32"
      },
      "t_struct(UserInfo)869_storage": {
        "encoding": "inplace",
        "label": "struct ichiFarmV2.UserInfo",
        "members": [
          {
            "astId": 866,
            "contract": "contracts/ichiFarmV2.sol:ichiFarmV2",
            "label": "amount",
            "offset": 0,
            "slot": "0",
            "type": "t_uint256"
          },
          {
            "astId": 868,
            "contract": "contracts/ichiFarmV2.sol:ichiFarmV2",
            "label": "rewardDebt",
            "offset": 0,
            "slot": "1",
            "type": "t_int256"
          }
        ],
        "numberOfBytes": "64"
      },
      "t_uint128": {
        "encoding": "inplace",
        "label": "uint128",
        "numberOfBytes": "16"
      },
      "t_uint256": {
        "encoding": "inplace",
        "label": "uint256",
        "numberOfBytes": "32"
      },
      "t_uint64": {
        "encoding": "inplace",
        "label": "uint64",
        "numberOfBytes": "8"
      }
    }
  }
}